:020000040800F2
:10000000781A00209D010008CB1B00080318000887
:10001000C91B0008A50A0008D5460008000000001A
:10002000000000000000000000000000011F0008A8
:100030004515000800000000991C0008E91F000891
:10004000B7010008B7010008B7010008B7010008B0
:10005000B7010008B701000849150008B7010008FA
:10006000B7010008B7010008B70100083D140008F7
:100070004914000855140008611400086D140008A4
:100080007914000885140008B7010008B7010008BA
:100090008D0B0008B7010008B7010008B701000880
:1000A000B7010008B7010008B7010008B701000850
:1000B000B9200008B7010008B7010008B70100081F
:1000C000B7010008B7010008B7010008B701000830
:1000D000B7010008812F00089D2F0008BD2F0008E0
:1000E000B7010008B7010008B7010008B701000810
:1000F000B7010008B7010008B70100089114000813
:10010000B7010008B7010008B7010008B7010008EF
:10011000452F0008652F0008B7010008B701000847
:10012000B70100089D140008A9140008B5140008C0
:10013000C1140008B7010008B7010008B7010008A2
:10014000B7010008B7010008B7010008B7010008AF
:10015000CD140008D9140008E5140008DD2F0008AC
:10016000B7010008B7010008511C0008451C000831
:10017000691C00085D1C0008B7010008B7010008F1
:10018000B7010008B7010008DFF80CD000F03CFB15
:10019000004800475D560008781A0020064880474E
:1001A00006480047FEE7FEE7FEE7FEE7FEE7FEE75C
:1001B000FEE7FEE7FEE7FEE7F91F000889010008F9
:1001C00040EA01039B0703D009E008C9121F08C0D9
:1001D000042AFAD203E011F8013B00F8013B521E59
:1001E000F9D270472DE9FE4F804681EA0300C00F27
:1001F0000C46009021F0004123F00045B8EB0200CE
:10020000A94105D24046214690461C460B4602466F
:1002100023F00040104347D0270DC7F30A00C3F373
:100220000A510290401A019040286BDAC3F3130080
:1002300040F4801B0098924620B10023D2EB030AC1
:1002400063EB0B0B01985946C0F14002504600F099
:10025000C4F906460D4650465946019A00F0DCF9AD
:1002600010EB08006141002487EA115284EAE77329
:100270001A4340D0009A62B3019A012A4FEA07520A
:1002800015DC001B61EB02014FF0004202EA07524D
:10029000CDE90042001C41F5801132462B4600F0AA
:1002A00013FA03B0BDE8F08F40462146F9E7001B82
:1002B00061EB0201001C41F5801300185B4120181E
:1002C000A2F5001747EB030140EAD570B6196D415E
:1002D00011E06D084FEA360645EAC0754FEA07524D
:1002E000001B61EB0201001C41F5801149084FEA37
:1002F00030000019514132462B4603B0BDE8F04FA3
:1003000000F0D3B90098012240000023D0EB020294
:1003100063EBE073009821464FEAE074B8EB00000D
:1003200061EB0401E9E783F000435BE781F0004102
:1003300058E72DE9FE4F81EA030404F0004421F060
:10034000004100944FF0000B23F0004350EA0104F9
:100350005ED052EA03045BD0C3F30A54C1F30A55DA
:100360002C44A4F2F3340194A0FB0254C1F3130112
:1003700041F48011C3F3130343F4801301FB0244DF
:1003800000FB034E840A970A44EA815447EA8357E4
:10039000A4FB076802958D0A05FB07854FEA932C9D
:1003A00004FB0C542705029D4FEA065847EA16370E
:1003B000B5EB08056EEB070C870E920E47EA811726
:1003C00042EA8312A7FB0201B6EB0B0164EB0004C7
:1003D0002B0D43EA0C335E1844EB1C50DA465146B1
:1003E000E7FB0201C5F313044FEA0B3343EA14534E
:1003F0004FEA0432019C43EA0603A4F10C04029480
:10040000009CCDE900B400F05FF903B0BDE8F08FC7
:1004100000200146F9E72DE9F04D81EA030404F0DC
:10042000004B21F0004514464FF0000A23F0004134
:1004300050EA050220D054EA01021DD0C5F30A5744
:100440000246C5F31303C1F31300C1F30A5640F487
:10045000801543F48013A7EB0608101BD64608F25C
:10046000FD3873EB050002D308F1010801E0921892
:100470005B41B8F1000F03DA00200146BDE8F08DC2
:1004800000204FF48011064684460EE0171B73EBE4
:10049000050705D3121B63EB050306434CEA010C69
:1004A00049084FEA300092185B4150EA0107EDD14C
:1004B00052EA030012D082EA040083EA05010843ED
:1004C00005D0101BAB4106D20122002306E000221A
:1004D0004FF0004302E06FF0010253101AEB0600E8
:1004E0004CEB085110EB0A0041EB0B01BDE8F04D5D
:1004F00000F0DBB80EB540F2334102910021CDE9A6
:1005000000110A460B4600F0DFF803B000BDC1F34E
:100510000A5210B5C1F3130140F2FF3341F48011C8
:100520009A4201DA002010BD40F233439A42A2F20F
:10053000334203DC524200F05FF810BD904010BD22
:1005400001F0004330B421F0004150EA010206D02E
:100550000A0DA2F56072C1F31301002A02DC30BC5F
:1005600000207047440F44EAC104C100E01830BCC9
:1005700000EBC25000F062B82DE9F05F05460020A4
:1005800092469B4688460646814640241BE0284604
:1005900041464746224600F02FF853465A46C01AB5
:1005A000914110D311461846224600F016F82D1A34
:1005B00067EB01084F4622460120002100F00DF8AC
:1005C00017EB00094E41201EA4F10104DFDC484670
:1005D00031462A464346BDE8F09F202A04DB203AF4
:1005E00000FA02F1002070479140C2F1200320FA86
:1005F00003F3194390407047202A04DB203A21FA84
:1006000002F00021704721FA02F3D040C2F120022B
:100610009140084319467047202A06DBCB17203A41
:1006200041FA02F043EAE07306E041FA02F3D040F7
:10063000C2F1200291400843194670470029A8BF23
:100640007047401C490008BF20F00100704710B4FB
:10065000B0FA80FC00FA0CF050EA010404BF10BCB0
:10066000704749B1CCF1200421FA04F411FA0CF1DD
:1006700018BF012121430843A3EB0C01CB1D4FEA16
:1006800000614FEA102042BF002010BC704700EB11
:10069000C35010440029A4BF10BC7047401C49003F
:1006A00008BF20F0010010BC704710B5141E73F194
:1006B000000408DA401C41F1000192185B411A4322
:1006C00001D120F0010010BD2DE9F04D92469B466E
:1006D00011B1B1FA81F202E0B0FA80F22032904614
:1006E000FFF77BFF04460F4640EA0A0041EA0B0190
:1006F00053465A46084313D0114653EA010019D015
:10070000C8F140025046FFF777FF05460E465046B7
:1007100059464246FFF761FF084305D0012004E037
:1007200020463946BDE8F08D0020054346EAE076D4
:100730002C4337430A986305E40AA0EB0800002223
:10074000FD0A44EA47540A3002D500200146E9E791
:10075000010510196941DDE9084500196941BDE845
:10076000F04DA2E72DE9F04D00231A461B1A8A41ED
:1007700003DB00200146BDE8F08DC1F30A52C1F34E
:10078000130141F480154FF0000BD10702D100187E
:100790006D41521E0027044640F2FF11384601EB1E
:1007A000620A3E468046024600204FF48011FFF761
:1007B00023FFC2197141BB1846EB0100B4EB030CD7
:1007C00075EB000C04D3E41A65EB000517460E46E2
:1007D000241908F101006D4180463428E3DDF91940
:1007E00046EB0600091BA84103D24FF0FF32134627
:1007F00001E0002213461BEB070046EB0A51BDE85F
:10080000F04DFFF752BF0000064C074D06E0E068D0
:1008100040F0010394E8070098471034AC42F6D347
:10082000FFF7B6FCD06D0008F06D000870B58C18AD
:1008300010F8015B15F0070301D110F8013B2A11F4
:1008400006D110F8012B03E010F8016B01F8016BE1
:100850005B1EF9D12B0705D40023521E0DD401F8DD
:10086000013BFAE710F8013BCB1A921C03E013F8A6
:10087000015B01F8015B521EF9D5A142D8D30020DB
:1008800070BD0029816802D041F0010101E021F032
:100890000101816070470000084B10B5D3F80423B4
:1008A00007490A40D0E900142143D0E9024004433B
:1008B00021431143C3F8041310BD00000020014080
:1008C000E030FCFFC06C80B2704702460020126826
:1008D0000A4200D00120704730B542680F4B0C79B6
:1008E0001A400B6842EA04221343436082680C4BAF
:1008F0004D791A40D1E9034323438C6844EA450407
:10090000234313438360C26A097D22F47002491EA7
:10091000C9B242EA0151C16230BD0000FFFEFFFCD6
:10092000FDF7FFC070B5072609290AD9C568A1F1EE
:100930000A0404EB4404A640B543A3401D43C5602C
:1009400007E0056901EB4104A640B543A3401D4300
:1009500005611F23072A09D2446B521E02EB820253
:1009600093409C4391400C43446370BD0D2A09D2CF
:10097000046BD21F02EB820293409C4391400C43D4
:10098000046370BDC46A0D3A02EB820293409C433B
:1009900091400C43C46270BD816841F08041816028
:1009A000704700007CB50121082001F077F9012093
:1009B0008DF8040000228DF806208DF80700022033
:1009C000074D4FF400448DF8050000946946284611
:1009D00000F0C7FE2146284600F00FFF7CBD000056
:1009E000000C02402DE9F0412B4C2378002B4DD018
:1009F0002B4F02250326A90328483A684FF0000E22
:100A0000012B1CD0A446022BDCF808C036D0032BE7
:100A10003CD194453AD294F8283004EB83065B1C11
:100A200036693244A260DAB284F82820637B9A42A5
:100A30002ED984F800E0BDE8F04100F0DEBE237B53
:100A40000127012B04D0022B04D0032B06D00BE08E
:100A5000642300E032232361677305E04FF47A7367
:100A600023616361A3616673257023691A44A260E0
:100A700084F82870BDE8F04100F0C1BE944505D26D
:100A800000F0BBFE38683230A0602670BDE8F0810F
:100A900000F0B5FE2570F9E79C140020000C024020
:100AA00040010020FEE700002DE9F04F8BB08A46A0
:100AB00081461E46904601210220DDF850B001F02B
:100AC000EDF80121480601F0F5F84FF44070079069
:100AD00002208DF8200000248DF8224003208DF89C
:100AE0002100284F01258DF8235007A9384600F032
:100AF00038FE09220821384600F06FFE092211460F
:100B0000384600F06AFE8DF812B08DF813908DF81B
:100B10001640ADF810608DF817401B4E8DF814800C
:100B200006948DF815A004A9304600F0BDF88DF8A4
:100B30000A408DF80B408DF80C50ADF80040ADF830
:100B40000440ADF80240ADF80640ADF808408DF81D
:100B50000D50684600F03AF801220221304600F0BC
:100B60009BF814208DF824008DF825508DF8264030
:100B70008DF8275009A801F029F80BB00020BDE836
:100B8000F08F0000000402400064004010B50C4CDF
:100B90000C49208800EB800001EB800200210A480C
:100BA00000F0F6F82088B0F5F97F01D9002000E0C8
:100BB000401C2080BDE81040012004F04DBC000026
:100BC000100000101802001000640040F0B5827A96
:100BD0002F4D012191402A6842F001022A602C4EDB
:100BE0001C3632688A433260294A047B294B0C3216
:100BF000A4B914688C4314604488C78844EA074445
:100C0000877A03EBC707C7F840460488878844EA19
:100C10000744877A03EBC707C7F84446047B012CD7
:100C200012D114680C431460847A026803EBC40484
:100C30004FEA3242C4F84026847A426803EBC40388
:100C40004FEA3242C3F84426114AC37A121D002BE0
:100C5000136806D00B4313600D4A0389143213B195
:100C600004E08B43F7E713688B4313600389012B80
:100C700002D113680B431360407B012802D1306816
:100C800008433060286820F001002860F0BD0000B3
:100C90000066004000600040002A426901D00A431B
:100CA00000E08A434261704710B50368002223F0D8
:100CB00002030360036843F0010303604FF6FF7310
:100CC00000E0521C4468E40701D19A42F9D142681D
:100CD000D2073ED08A79012A02683CD022F08002F5
:100CE0000260CA79012A026838D022F0400202600C
:100CF0000A7A012A026834D022F0200202604A7A7D
:100D0000012A026830D022F0100202608A7A012A99
:100D100002682CD022F008020260CA7A012A026816
:100D200028D022F0040202608A78CC78920742EA46
:100D300004620C7942EA04424C79098842EA04527E
:100D4000491E0A43C261016821F0010101600021CE
:100D500014E0002010BD42F08002C1E742F04002E2
:100D6000C5E742F02002C9E742F01002CDE742F0A9
:100D70000802D1E742F00402D5E7491C4268D207D5
:100D800001D09942F9D14068C007E2D1012010BDDD
:100D900010B500EB0113D3F8B04114F00404147241
:100DA000D3F8B04133D0E4085460D3F8B04104F034
:100DB00002045472D3F8B44104F00F049472D3F8CF
:100DC000B441240AD474D3F8B841D472D3F8B841EA
:100DD000240A1473D3F8B841240C5473D3F8B841DF
:100DE000240E9473D3F8BC41D473D3F8BC41240AC5
:100DF0001474D3F8BC41240C5474D3F8BC311B0ECA
:100E0000937439B1016941F02001016110BD640D95
:100E10001460CAE7C16841F02001C16010BD30B55F
:100E20000246002093685B0108D49068000101D558
:100E3000012003E09068C00037D5022002EB0012C9
:100E4000D2F8803103F00103C2F880310B7A73B31A
:100E5000D2F880414D681C434B7A43EAC5031C43DA
:100E6000C2F880418B7A03F00F038B72D2F8843181
:100E700023F00F03C2F88431D2F884318C7A2343F3
:100E8000C2F88431CB7ACC6843EA0423C2F88831B3
:100E9000CB7B096943EA0121C2F88C11D2F8801199
:100EA00041F00101C2F8801130BD042030BDD2F8FC
:100EB00080314C7A23430C8843EA4453C2F8803192
:100EC000D0E710B50B460C0601F07F0202EB820161
:100ED00000EBC10102D501F58E7101E001F55D71F4
:100EE0000A70DA094A7003F0CEF9002010BD0A46F4
:100EF00010B5090602F07F0306D503EB830100EB72
:100F0000C10101F58E7105E002EB820100EBC10128
:100F100001F55D7100248C700B70D2094A7003F0EA
:100F200099F9002010BD10B50A0604D501F07F0123
:100F300003F0C8FA01E003F0A7FA002010BD70B575
:100F40000D460E0601F07F0404EB840100EBC101A5
:100F500002D501F58E7101E001F55D71ED090C70AE
:100F60004D708A60CB7000D0CC80022B01D1002262
:100F70000A7103F03BF9002070BD10B501F07F0449
:100F800004EB840100EBC101C1F88833C1F8802370
:100F90000023C1F88C3381F8753381F87443C3782A
:100FA00001F55D71012B00D10A6114F0FF0F03D030
:100FB00003F0A8F9002010BD03F0A9F8FAE70069D2
:100FC000002261F30A1201681143016070470A466A
:100FD00010B5090602F07F0306D503EB830100EB91
:100FE000C10101F58E7105E002EB820100EBC10148
:100FF00001F55D7101248C700B70D2094A7003F009
:1010000069F9002010BD70B511F07F0404EB840174
:1010100000EBC1014FF0010581F81D5181F81C4121
:10102000C1F82821C1F82C2101F58E714FF0000282
:10103000C1E9053203D003F065F9002070BD03F06B
:1010400066F8FAE72DE9F0410646002403F083FA3A
:10105000074655E0F80751D03069E1B20369426BA9
:10106000CA4006EB810102F00102896943EAC2121B
:101070008D681540E9071AD00125426B05FA04F185
:101080008A43426306EB8400806985601F48E1B2B1
:101090000068426830469047F078012807D134B99B
:1010A00096F81101042802D1304603F08DF8280784
:1010B00004D506EB8400082580698560E80604D520
:1010C00006EB8400102580698560680604D506EB70
:1010D0008400402580698560A80704D506EB84005C
:1010E000022580698560280608D52146304600F033
:1010F0006CF906EB84018020896988607F08641C94
:10110000002FA7D10120BDE8F08100008800002059
:101110002DE9F0410546002403F023FA0746DFF8E5
:10112000988043E0F8073FD0E1B2284603F01FFA69
:101130000646C00725D005EB84000126416D8E6070
:10114000E97801290CD1406D016904EB840005EBBD
:10115000C000C1F31201D0F87C23511AC0F88C13DF
:10116000D8F80000E1B2026828469047E8780128E4
:1011700007D134B995F81101052802D1284603F0AA
:1011800023F8B00704D505EB84000226406D866085
:10119000300709D5D8F8000081682846884705EB54
:1011A00084010820496D88607F08641C002FB9D134
:1011B0000120BDE8F08100008800002070B50546E0
:1011C000C068816921F010018161E868066A06F053
:1011D0000F0000EB800005EBC004C6F3434004F5AC
:1011E0005D74072821D2DFE800F0202004202020B1
:1011F000150047F6F070064217D0C6F30A163246BD
:101200002846E16803F0BBF9E0683044E060A0697B
:10121000304409E0082205F2CC51284603F0AFF92A
:10122000A069C6F30A110844A061E868816941F029
:1012300010018161012070BD38B5044600208DF891
:10124000000094F812018DF800001548006841690B
:101250002046884720698068E2684FF40061516148
:10126000A17AD1B1C00718D094F81501012814D182
:101270009DF80000032810D1D4F80C01016841F05A
:1012800001010160D4F80C01016841F00301016023
:101290000448016841F006010160012038BD0000EA
:1012A0008800002010ED00E070B5044600690025BC
:1012B0000126416821F0010141602946204603F0E2
:1012C00001F90020FF2206E004EB80018B699A609F
:1012D000496D8A60401C61788142F5D821694FF0E0
:1012E000FF3088612846216966F30F0066F31F40CE
:1012F000C861216945F00B0048612169C1F884008B
:10130000216945F00B000861216948642069016882
:1013100021F4FE610160204602F056FFE1684FF4BF
:1013200080504861034800680169204688470120D1
:1013300070BD00008800002070B5044603F030F94D
:101340000120002384F8120184F814311A46402544
:1013500010E002EB820104EBC10181F81D0181F86C
:101360001C21A1F8222181F81F31C1E94953521CE7
:10137000C1F8303161789142EBD8002010E000EBE9
:10138000800104EBC10181F8753381F87403A1F881
:101390007A0381F87733C1E9DF53401CC1F8883301
:1013A00061788142EBD8204602F08CFE204602F0A4
:1013B00071FD0021204603F055F9204602F0AAFDF8
:1013C0002046BDE8704003F057B82DE9F0470E46BF
:1013D00001EB860100EBC1048146D4E94C01401ABF
:1013E000D4F8241104F58E74814200D20846C01C42
:1013F000870809EB860812E0451AA068A84200D2C7
:101400000546E81C8708ABB2F2B24846E16803F033
:101410004DF9E0682844E060A0692844A061D8F84C
:101420001800806980B2B84205D9D4E9050181422B
:1014300001D20028E0D10120BDE8F087014801F089
:101440002EB9000010600240014801F028B90000E8
:1014500028600240014801F022B9000040600240CB
:10146000014801F01CB9000058600240014801F039
:1014700016B9000070600240014801F010B9000088
:1014800088600240014801F00AB90000A0600240F3
:10149000014801F004B90000B8600240014801F0C1
:1014A000FEB8000028640240014801F0F8B80000CE
:1014B00040640240014801F0F2B800005864024064
:1014C000014801F0ECB8000070640240014801F0EE
:1014D000E6B8000088640240014801F0E0B800006E
:1014E000A0640240014801F0DAB80000B86402408C
:1014F00030B50368124ACC6813400A682243D1E928
:1015000005452C432243CC6922430C6A22434C6A92
:1015100022438C6A22434C6B22438C6B22431A4336
:101520000260426922F00703D1E90B2422431A43E7
:1015300042610A6942604A6882608968C16030BD60
:101540003F801CF0704700000448012101700449ED
:1015500009684160012000F02BB80000480100201C
:10156000240400403EB503F089FD0121880300F00A
:10157000B9FB0021084600F0C5FC00258DF8045099
:101580000C2001248DF8050000948DF80640684673
:1015900000F014F806208DF808008DF809408DF849
:1015A0000A508DF80B4002A800F010FB3EBD000071
:1015B0000149086070470000143C014030B51A4AE8
:1015C0008379016853B313688B431360111D0B6853
:1015D0000468A3430B60017911440B68046823433A
:1015E0000B60114B083319680468A14319601C1D76
:1015F00021680568A94321604179102905D011446B
:101600000A68006802430A6030BD19680268114325
:101610001960216800680143216030BD00791044E1
:1016200002688A43026030BD003C014070B5064646
:10163000002529B1012927D0022928D04FF440756F
:1016400000F080F809281ED1124C206820F4407068
:101650002060206828432060206820F0F800206087
:10166000206846F0020108432060206840F4803082
:10167000206000F067F8216821F0020121602168F4
:1016800021F0F801216070BD4FF48075D8E74FF468
:101690000075D5E7103C02400D4909200A68D203C5
:1016A00001D5012070470A68D20601D5062070478F
:1016B0000A68D20501D5022070470A6812F0E00FCF
:1016C00001D00720704709688907FBD508207047BB
:1016D0000C3C02400248016841F000410160704743
:1016E000103C024070B50D46064600F02BF8092864
:1016F00013D10A4C206820F440702060206840F428
:1017000000702060206840F001002060356000F02B
:1017100019F8216821F00101216070BD103C0240E0
:1017200005480068002805DA034804490C380160C0
:101730000349016070470000103C024023016745E7
:10174000AB89EFCD08B509208DF80000FFF7A4FFA5
:101750008DF800009DF800000128F7D09DF80000EA
:1017600008BDF0B5002201274FF0030C0B6807FA03
:1017700002F52B40AB422CD1066853000CFA03F45F
:10178000A64306600E79D0F800E09E4046EA0E06B9
:1017900006600E79012E01D0022E12D18668A64372
:1017A00086604E79D0F808E09E4046EA0E068660D4
:1017B0004668AE43466045688E799640B6B235437A
:1017C0004560C568A543C560CC799C40C3681C438F
:1017D000C460521C102AC9D3F0BD4B07DB0E9A40DF
:1017E000C90810B500EB8100016A0F249C40A14399
:1017F0000162016A1143016210BD41837047018398
:101800007047FEE701460148FFF7F9BF00080240B4
:1018100001460148FFF7F1BF000802401CB5012155
:10182000042000F03BFAC020009001208DF8040055
:101830008DF8060000208DF8070002208DF80500C5
:1018400069460548FFF78DFF8020FFF7DBFF40204A
:10185000FFF7DEFF1CBD0000000802400146014802
:10186000FFF7CDBF0010024001460148FFF7C5BF9A
:10187000001002401CB50121102000F00FFA0121D8
:101880008DF804108DF8061000218DF80710022045
:101890004FF47F448DF80500009469460348FFF734
:1018A00060FF2046FFF7DAFF1CBD00000010024079
:1018B0002DE9F0411C4FB878032832D2A7F1280552
:1018C0004FF0FF3640B9BA7918A1284602F004FF5C
:1018D000AE72EE722E730D24B878012814D13A79C5
:1018E000092A00D909240A2A00D208240E4812A184
:1018F000283802F0F1FE2E55641CE0B22E54401C34
:10190000C0B22E54401CC4B2B878022809D106488F
:101910007A790CA1283802F0DFFE2E726E72AE7258
:101920000B242046BDE8F0810415002072616E6B27
:101930002E76616C3D2564006E302E76616C3D25FF
:10194000640000006E372E76616C3D256400000057
:101950000C49401E48434FF4B47190FBF1F00A4922
:10196000098A084400B244F6BA31002801DA084472
:1019700000B2884203DDA0F59640BA3800B280B2CA
:1019800070470000E66F0400041300202DE9FC41BD
:101990000121084600F082F90026022401258DF875
:1019A00006608DF807501F4F8DF8044000948DF8A5
:1019B000054069463846FFF7D4FE012211463846F5
:1019C000FFF70BFF0121042000F068F98DF80450A7
:1019D0008DF80660DFF85080A7028DF80750009759
:1019E0008DF8054069464046FFF7BBFE3946404644
:1019F000FFF703FF0121042000F050F98DF8045097
:101A00008DF8066067028DF8075000978DF8054045
:101A100069464046FFF7A5FE39464046FFF7EDFE12
:101A2000BDE8FC81000002400008024008B5FFF755
:101A3000ADFF1C208DF8000001208DF801008DF80D
:101A400002008DF80300684600F0C0F8BDE80840C9
:101A500000F0C9BC2DE9F0414D4E040098463078A5
:101A600017460D4604D540F010003070644202E085
:101A700020F010003070032C7DDBB46130784FF41F
:101A80000061C006434802D4FFF7B9FE01E0FFF74A
:101A9000B4FE042C79DB47F6B721B1FBF8F03061D6
:101AA0003D48B0FBF5F0FEF725FD41EC100B02F0D0
:101AB00027FE9FED3A1B51EC100B53EC112BFEF758
:101AC00038FC9FED381B53EC112BFEF7A4FCFEF7FE
:101AD0001EFD7060C5EB451040006421B0FBF1F1C4
:101AE00008FB08F0B0FBF1F000B9012004FB07F19E
:101AF000EA19B1FBF2F101B90121814201D8081BB9
:101B000003E06843B0FBF7F04042F060F06810B9C2
:101B10004FF0FF30F060F0682044B06070683169C9
:101B2000884206D830697060307820F00F00C01C01
:101B300003E0307820F00F00401C3070002070610E
:101B40001A48017841F0010101700020401CC0B228
:101B5000C828FBD33078C0F3001004F03DFD1421F9
:101B60000C07204600F0D0FC0A21204600F0CEFCF5
:101B70000121204600E008E000F0A0FB2046BDE87F
:101B8000F0410122114600F026BCBDE8F0810000C2
:101B9000DC12002000080240B8BCBE0300000000B8
:101BA0000020854000000000000059405001002046
:101BB000044A0128516802D0491C51607047491EEF
:101BC000FBE7000050010020FEE7704730B50F230F
:101BD000C27801780125FAB1144A126801F1E021B6
:101BE00002F4E062C2F5E062C2F30722C2F104042B
:101BF000D3404278A24084781C401443220181F8EB
:101C00000024007800F01F018D404009800000F1A1
:101C1000E020C0F8005130BD01F01F0085404809A8
:101C2000800000F1E020C0F8805130BD0CED00E0F4
:101C30000249084302490860704700000000FA05A5
:101C40000CED00E0014801F067BC0000E80B00204B
:101C5000014801F09DBC0000E80B0020014801F0A4
:101C6000BFBC0000E80B0020094810B5807A48B1DD
:101C70000848016821F00601016000F0BDF9044840
:101C800002F005FDBDE810404FF48010FFF790BC56
:101C9000E80B002010ED00E070470000044A002926
:101CA000116801D0014300E08143116070470000DA
:101CB00030380240044A0029116801D0014300E095
:101CC000814311607047000040380240044A0029F7
:101CD000116801D0014300E08143116070470000AA
:101CE00020380240044A0029116801D0014300E075
:101CF000814311607047000044380240044A0029C3
:101D0000116801D0014300E0814311607047000079
:101D10002438024070B5204B1968204C11F00C019A
:101D200004D06610042903D0082903D004601BE006
:101D3000066019E0184A121F1168C1F38055116836
:101D400001F03F0115B1B6FBF1F101E0B4FBF1F197
:101D500014681268C4F388146143C2F30142521C30
:101D60005200B1FBF2F1016019680F2202EA111171
:101D70000B4A545C0168E14041601C68072505EA94
:101D80009424145D21FA04F484601B6805EA53333B
:101D9000D25CD140C16070BD083802400024F4001C
:101DA0002C01002002460020510901290BD00229F4
:101DB0000CD00849096802F01F02012393400B422E
:101DC00000D00120704703497439F3E70149091F26
:101DD000F0E70000743802401C49884201D200201C
:101DE00070471B49884201D2082070471949884230
:101DF00001D2102070471849884201D2182070473C
:101E00001649884201D2202070471549884201D2E4
:101E1000282070471349884201D230207047124968
:101E2000884201D2382070471049884201D24020B0
:101E300070470F49884201D2482070470D498842B7
:101E400001D2502070475820704700000040000821
:101E50000080000800C0000800000108000002081F
:101E600000000408000006080000080800000A0836
:101E700000000C0800000E0810B5002303E010C895
:101E800041F823405B1C9342F9D310BD2DE9F0418A
:101E9000092690460F460446B0F1006F2BD3A007E9
:101EA00029D1FFF73DFC1548254604EB88088442FC
:101EB0000ED31AE02868401C09D02846FFF78CFF93
:101EC0000221FFF7B3FB0646092801D00FE02D1DC4
:101ED0004545EFD3092E08D009E020463968FFF7C1
:101EE00001FC092803D1241D3F1D4445F5D3BDE85D
:101EF000F041FFF7EFBBBDE8F08100000000FF1FDD
:101F00007047000010B58A0721F003040849120F3A
:101F100021440F23D1F8084893409C43C1F8084856
:101F2000D1F8083890400343C1F8083810BD0000CC
:101F3000003001400CB50022274900920192086848
:101F400040F4803008604FF4A043086800F400308B
:101F500001900098401C0090019810B90098984298
:101F6000F3D10868800334D5012001901A4840302D
:101F7000026842F0805202601848026842F440420F
:101F800002601548083002680260026842F40042AC
:101F90000260026842F4A0520260031F104A1A60F5
:101FA0000A6842F080720A600A689201FCD50D4905
:101FB00040F205620A60016821F0030101600168D6
:101FC00041F0020101600168C1F381010229FAD1E7
:101FD0000CBD01920CBD00000038024000700040B2
:101FE00008544007003C024002480168491C016057
:101FF0007047000040010020124810B5016841F40C
:10200000700101601048016841F0010101600E4A51
:1020100000210832116002680C4B1A400260031D57
:102020000B4A1A60026822F48022026006480C30D3
:102030000160FFF77FFF03494FF0006080390860BF
:1020400010BD000088ED00E000380240FFFFF6FE02
:102050001030002470B5048C24F001040484058B36
:10206000048C4FF6FF7606EA0313134325F0F305BD
:102070002B4324F00A020A4342F001010383018446
:1020800070BDF0B5048C24F010040484078B068C1A
:102090004FF6FF7404EA011527F4734704EA03318D
:1020A000394304EA02220A4326F0A001294341F001
:1020B000100102830184F0BD2DE9F04701218E0754
:1020C000304600F01EF9002871D00121304600F0A2
:1020D000F2F86F4D6868400830646868F0622878EC
:1020E000002700F00F006B4B4FF0010901282ED0A4
:1020F000DFF8A48102287DD0032864D0042825D1EC
:10210000698CD8F800204046914200D0AF84698C99
:102110000068814202D1A88C401CA884688C0428E5
:1021200014D36F84DF60002130461F6100F0C6F8D1
:102130005848017821F001010170287820F00F0043
:1021400028702878C0F3001004F028FA9CE0308C46
:1021500040F4805030842878C0F30010FFF728FD49
:10216000D868401CD8606869401C68616968186953
:102170006C6900EB410209EB840492FBF4F26C6899
:10218000A41A6A6800EB42006A6909EB820190FBBD
:10219000F1F201FB120018612878C0F3001003F07F
:1021A000DBF8A968884203D3E868686125E06CE041
:1021B0002869A04268D39C602C691F61287820F0B0
:1021C0000F00C01C1DE0308C40F480503084287813
:1021D000C0F30010FFF7ECFCD868401CD8602C69F5
:1021E0002878C0F3001003F0B7F8A96888424BD3F1
:1021F000E86800E007E068619C68287820F00F003C
:10220000801C287040E0308C40F480503084287866
:10221000C0F30010FFF7CCFCD868401CD860686998
:10222000401C68612878C0F3001003F095F8A96994
:1022300088420ED9308C20F480503084287820F0E9
:102240000F00001D2870D8F800004FF6FF74688456
:102250001AE06869002801DB6C6815E06968186994
:102260006C6900EB410209EB840492FBF4F26C68A8
:10227000A41A6A6800EB42006A6909EB820190FBCC
:10228000F1F201FB120018616C60BDE8F0870000FC
:10229000DC120020500100202404004000290188A5
:1022A00002D041F0800101E021F0800101807047FF
:1022B000C94301827047C9430182704700290188E0
:1022C00002D041F0010101E021F0010101807047DD
:1022D00070B50589048B068C25F007050D434FF674
:1022E000FC410C4040F201110C434FF6FF7101EA32
:1022F000031126F022061143314305810483018432
:1023000070BD02460020138A92890B4202EA010244
:1023100002D0002A00D0012070472DE9F0410C4680
:102320000E884988A2882389054616B3042E28D032
:10233000082E2E8C4FF6FF702BD026F480562E845C
:10234000AF8B2E8C00EA022200EA013127F473479A
:102350003A4300EA0330104326F420420A4342F491
:102360008051A8832984E1882846BDE8F04100F027
:10237000EDB8FFF76FFEE1882846BDE8F04100F0B8
:10238000C9B8FFF77EFEE1882846BDE8F04100F0BD
:10239000C9B826F480762E84AF8B2E8C00EA0121FA
:1023A00000EA0310104327F0F307384326F42062B5
:1023B0000A4342F48071A8832984E1882846BDE855
:1023C000F04100F0BBB800210180418001228280F1
:1023D000C18001817047002A828901D00A4300E050
:1023E0008A438281704730B5012189B00846FFF7E2
:1023F00061FC05A800F0F4F809200690A720ADF8CC
:10240000140000244FF08045ADF81C40ADF8164094
:1024100005A9284600F0A6F87020ADF800000120BC
:10242000ADF80200042002900220ADF80C00ADF8D7
:102430000440ADF810406946284600F01BF808211A
:10244000284600F057F801212846FFF727FF012111
:10245000284600F0CEF801212846FFF72CFF012284
:1024600011462846FFF7B7FF00212846FFF726FF51
:1024700009B030BD70B5028C22F010020284028CCB
:102480008388048B0D8824F4E6464FF6FF7404EA33
:10249000052535438E8922F0200204EA06161643EC
:1024A0004A8804EA02123243104EB04202D0104E63
:1024B000B04215D122F08006CA8923F4406304EAB1
:1024C0000212324322F040068A8804EA02123243A2
:1024D0000E8A04EA86061E434B8A04EA83033343CA
:1024E0008380058389688163028470BD0000014098
:1024F00000040140028B4FF6FF7322F4006203EAEE
:102500000121114301837047C162704781637047A5
:1025100041627047028B22F00C020283028B0A4355
:1025200002837047028B22F440620283028B4FF6D3
:10253000FF7303EA01210A4302837047828B22F072
:102540000C028283828B0A4382837047828B22F43F
:1025500040628283828B4FF6FF7303EA01210A43B4
:102560008283704730B50288164C174DA0420DD0BB
:10257000A8420BD0B0F1804F08D0144B984205D040
:10258000134B984202D0134B984203D122F07003B0
:102590004A881A43104B984206D0104B984203D0F9
:1025A00022F440730A891A4302804A68C2620A8888
:1025B0000285A04201D0A84201D1897A0186012179
:1025C000818230BD00000140000401400004004051
:1025D00000080040000C00400010004000140040C3
:1025E0004FF0FF3141600021018001814180817203
:1025F00070470029018802D041F0040101E021F078
:1026000004010180704700000C4A10B51823904265
:1026100002D20B4A0B4C03E0084A084C083A6442C9
:102620002044B0FBF3F0042801D3001F121D064B19
:1026300001F03D01185C8140116010BD1064024042
:1026400008600240F09FFDBFBA6D00083D21FFF712
:10265000DBBF7047704700000C491822884202D245
:102660000B490C4B03E00949084B10395B421844F5
:10267000B0FBF2F0042801D3001F091D0968064AC7
:10268000105CC14001F03D00704700001064024042
:1026900000600240F09FFDBFBA6D0008704770B542
:1026A00005463D21FFF7D8FF84B23D212846FFF7BC
:1026B000ABFFA00605D52868C00602D5284600F065
:1026C00021F8E00605D52868000702D52846FFF75F
:1026D000E5FF200705D52868400702D5284600F009
:1026E00012F8600705D52868800702D52846FFF74D
:1026F000B0FFE00705D06869000602D52846FFF75D
:10270000A9FF70BD7047704702490844C0F38F208D
:10271000704700000000FEBF00B5FFF7F5FF012184
:102720008140024802681143016000BD3038024018
:102730002DE9F04F9A46DDE909B889460346FFF7CF
:10274000E3FFC5B200204FF0030E0121814011EAE2
:10275000090F28D0174E36F815400C4326F81540BF
:10276000DF6844000EFA04F6B7430BFA04FC47EAAC
:102770000C07DF601F6802FA04FCB74347EA0C0746
:102780001F60012A01D0022A0DD15F6889B28F43F0
:102790000AFA00F189B20F435F60996808FA04F4FD
:1027A000B14321439960401CC0B21028CDD3BDE88D
:1027B000F08F0000601500202DE9FC411646DDE990
:1027C00008750C00804608D0FFF7A6FFCDE900751C
:1027D000324621464046FFF7ABFFBDE8FC812DE9BC
:1027E000FC4F9946DDE90BB692460C00054622D017
:1027F000FFF792FF002201274FF00F0C07FA02F0BB
:1028000020420DD0D00805EB8000016A5307DB0E93
:102810000CFA03F821EA080106FA03F319430162EE
:10282000521C102AEAD3CDE9009B534602222146CE
:102830002846FFF77DFFBDE8FC8F00001CB508228D
:10284000032140B101280DD0032803D108210A48F3
:1028500000F01AFB1CBDCDE9001201230022032168
:10286000064806E0CDE90012012300224FF4406142
:102870000348FFF7B4FF1CBD004C004000000240BD
:10288000000802407CB530B1032803D108210B4871
:1028900000F0FAFA7CBD0825032401230022190365
:1028A0000748CDE90045FFF79AFF012300220421E4
:1028B0000448CDE90045FFF792FF7CBD0050004081
:1028C00000080240000C02401CB50722032140B161
:1028D00001280ED0032803D107210A4800F0D4FABA
:1028E0001CBDCDE90012012300224FF4C06106484F
:1028F00005E0CDE9001201230022C0210348FFF7C3
:102900006EFF1CBD001001400000024000040240A8
:102910001CB50722032140B101280DD0032803D1A3
:1029200007210A4800F0B0FA1CBDCDE900120123CE
:1029300000220C21064805E0CDE900120123002207
:1029400060210448FFF74BFF1CBD0000004400401D
:1029500000000240000C02401CB50722032399022C
:1029600050B101280ED0022812D0032803D107212C
:102970000C4800F089FA1CBDCDE900320123002289
:1029800009480CE0CDE9003201230022074806E0A7
:10299000CDE90032012300224FF440710448FFF7D3
:1029A0001EFF1CBD00480040000402400008024019
:1029B000000C02401CB50822032140B101280DD0B3
:1029C000032803D108210A4800F05EFA1CBDCDE9B6
:1029D000001201230022C021064806E0CDE90012C2
:1029E000012300224FF484410348FFF7F8FE1CBD89
:1029F0000014014000080240001802400F4A01463E
:102A0000904200D10E480F4A914201D10C48083043
:102A10000D4A914201D10A4810300C4A914201D12D
:102A2000074818300A4A914201D105482030094A26
:102A3000914201D102482830704700000010014047
:102A40003C0200200044004000480040004C004090
:102A5000005000400014014010B5FFF7CFFF104BAD
:102A6000104942689A420A6802D342F4800201E0A7
:102A700042F400120A604068FFF7E8FD0A4840216E
:102A80004FF48062C1600021C0E90512C16101629A
:102A9000416203228162C0E90B124163816310BD70
:102AA0001064024030380240781500202DE9F041D2
:102AB00016460F460546FFF7A1FF044640684068EA
:102AC00010B10020BDE8F0810C482168066101606A
:102AD000291DC0E901176068FFF7B8FD0749606864
:102AE000FEF706FD6068016841F001010160A88AF7
:102AF00040F08000A8820120E4E700007815002063
:102B000010B50C4600F080F8C38842890DE081883A
:102B1000914200D100220168895CA14201D10120CB
:102B200010BD521C5B1E92B29BB2002BEFD1002055
:102B300010BD10B5002300F067F8C18819B90289EB
:102B40004489A2420DD0428983889A4201D1002251
:102B50004281036892B29B56521C428109B1491EC0
:102B6000C180D8B210BD2DE9F04117460E4680460F
:102B7000002400F049F80546C08840B1697B404612
:102B8000FFF7BEFF88B9E888A98888420DD00020E9
:102B9000BDE8F0814046FFF7CCFF3055697BC0B2FD
:102BA000884205D0641CA4B200E07F1EBC42F1DB69
:102BB0000021641CA0B23154EAE700000C4A01462F
:102BC000904200D104200B4A914200D101200A4AD0
:102BD000914200D10220094A914200D10420084AC2
:102BE000914200D10520074A914200D1062070474A
:102BF000001001400044004000480040004C0040EC
:102C000000500040001401400F4A0146904200D19C
:102C10000E480F4A914201D10C4810300D4A9142A2
:102C200001D10A4820300C4A914201D10748303086
:102C30000A4A914201D105484030094A914201D1E6
:102C40000248503070470000001001406C02002024
:102C50000044004000480040004C0040005000404C
:102C6000001401402DE9FF4F87B09A46DDE914B901
:102C700013460446DDF85C80FFF7C6FF054643486F
:102C8000434F0193844209D1386840F01000386006
:102C90000898FFF719FE25208DF800003C4E3D48AE
:102CA000361F844209D1306840F400303060089803
:102CB000FFF72EFE26208DF800003748844209D108
:102CC000306840F4802030600898FFF745FE2720E8
:102CD0008DF800003148844209D1306840F400206A
:102CE00030600898FFF7AAFD34208DF800002C48CA
:102CF000844209D1306840F4801030600898FFF7B2
:102D0000C1FD35208DF800002648844209D138687D
:102D100040F0200038600898FFF74CFE47208DF8FF
:102D20000000204600F06AF901268DF803608DF856
:102D300001602046FFF742FF8DF802006846FEF76B
:102D400045FF1698ADF80A00ADF80EB0ADF810A02A
:102D5000ADF80C90ADF808800020287340F6FF70A5
:102D60000590411E059101D30846FAE701A92046C6
:102D700000F09AF9A08940F02000A0812E73A0896C
:102D800040F40050A0810BB0BDE8F08F001001406E
:102D9000443802400044004000480040004C0040DD
:102DA0000050004000140140C388828893420DD235
:102DB0000389934201D10022028103890268D15420
:102DC0000189491C0181C188491CC18070470000EC
:102DD0002DE9FF410446264800250C261746884663
:102DE000844206D1CDE90065029500230395FFF7E3
:102DF00039FF2048844208D1CDE9006502950023BF
:102E00003A4641460395FFF72DFF1B48844208D1FF
:102E1000CDE90065029500233A4641460395FFF748
:102E200021FF1648844208D1CDE9006502950023B0
:102E30003A4641460395FFF715FF1148844208D1F1
:102E4000CDE90065029500233A4641460395FFF718
:102E500009FF0C48844208D1CDE9006502950023A2
:102E60003A4641460395FFF7FDFEBDE8FF810000AD
:102E7000001001400044004000480040004C004069
:102E800000500040001401407047000070B52B4B0B
:102E9000002211461C68A40004D51C68012244F0DD
:102EA00080741C60264B45F255541C600B2801D3DE
:102EB000072400E003245C6000B3012820D002282E
:102EC00020D0032820D0042820D0052820D0062890
:102ED00020D0072820D040F2FF3408281FD040F22D
:102EE000FF7509281DD040F6FF760A281BD00B2855
:102EF00015D00C2815D00D2815D015E0052113E0AC
:102F00000A2111E00F210FE01F210DE03D210BE010
:102F10007B2109E0FF2107E040F2FF1104E0214698
:102F200002E0294600E0314699604AF6AA2018607E
:102F30004CF6CC401860104670BD0000743802405A
:102F40000030004005480088800606D50348001D73
:102F50000088C1B20248FFF727BF7047004C00400D
:102F60009C02002004480188890604D58088C1B2EB
:102F70000248FFF719BF704700500040AC02002024
:102F800004480188890604D58088C1B20248FFF749
:102F90000BBF7047001001406C02002005480088FC
:102FA000800606D50348001D0088C1B20248FFF71D
:102FB000FBBE7047004400407C02002005480088AA
:102FC000800606D50348001D0088C1B20248FFF7FD
:102FD000EBBE7047004800408C0200200548008886
:102FE000800606D50348001D0088C1B20248FFF7DD
:102FF000DBBE704700140140BC020020224910B51E
:10300000884206D101211020FEF778FE0021102011
:1030100020E01E49884202D101214C0429E01C49CC
:10302000884202D101218C0423E01A49884202D14E
:103030000121CC041DE01849884202D101210C0570
:1030400017E01649884209D101212020FEF756FEDB
:1030500000212020BDE81040FEF750BE10498842F4
:1030600002D101218C0704E00E4988420AD10121D6
:1030700044052046FEF72AFE2046BDE81040002108
:10308000FEF724BE10BD00000010014000440040C7
:1030900000480040004C0040005000400014014037
:1030A00000780040007C00407FB50446008A0D4651
:1030B000C98820F4405001432182A08941F20C616B
:1030C0008843A9882A8911436A8902431143A1814F
:1030D000A08A20F44071A8890843A0826846FEF7C0
:1030E00019FE1A48844202D01948844201D103983B
:1030F00000E00298A189090400EBC00101EB001077
:10310000296801D5490000E08900B0FBF1F0642294
:10311000B0FBF2F109010B096FF018056B4300EBEE
:103120008300A3891D044FF0320306D503EBC000D2
:10313000B0FBF2F000F0070005E003EB0010B0FB7D
:10314000F2F000F00F00084320817FBD0010014025
:103150000014014010B5D0F8E425526890470020D3
:1031600010BD10B5134600240A462146FDF705FFA1
:10317000204610BD10B5134600240A462146FDF72F
:1031800042FF204610BD10B504468021FDF71FFF09
:1031900000212046FDF71BFF2046BDE8104001F04E
:1031A00013B810B5C0F894230323C0F8902380F817
:1031B0001131134600240A462146FDF7DEFE204663
:1031C00010BD70B505460024052085F81101234681
:1031D000224621462846FDF7D0FE284600F0F4FF9F
:1031E000204670BD10B5C0F83C210223C0F838213C
:1031F00080F81131134600240A462146FDF703FFEB
:10320000204610BD70B505460024042085F8110144
:103210002346224621462846FDF7F5FE284600F0C3
:10322000D3FF204670BD000070B5054641B1D5F80A
:10323000E40542698AB395F81201032846D047E0B5
:1032400095F81101002605F58E74022833D1E16945
:10325000A06881420FD9081AE061E878012803D1FB
:10326000D4E902100844E060A08BE16882B22846ED
:10327000FFF780FF1FE0216AB1FBF0F200FB1212A2
:1032800062B981420AD3606A814207D200221146A4
:103290002846FFF76FFF66620DE016E0D5F8E405FB
:1032A000C16829B195F81201032801D12846884741
:1032B0002846FFF786FF95F81601012808D1054832
:1032C00000682969486085F8166101E02846904742
:1032D000002070BD8C00002070B5054641B1D5F8C6
:1032E000E4058269FAB195F8120103282AD02BE08F
:1032F00095F8110105F55D74032825D1A168E069F1
:10330000884211D9401AE061E878012802D1E068CA
:103310000844E060E069884200D3084682B228464B
:10332000E168FFF71EFF0FE0D5F8E405016929B158
:1033300095F81201032801D1284688472846FFF74F
:1033400061FF01E028469047002070BD38B5044673
:1033500048880D46010A08296AD2DFE801F06904AD
:10336000142C69695567D4F8EC15A0780A68694689
:1033700090470146E888402803D094F812010128BC
:1033800063D108204FE0D4F8E415A0788A6A694632
:1033900090470146A078012808D1227A012A05D158
:1033A000D4F8E415CA6A694690470146022048707D
:1033B000C4F8F01549E0C0B2062839D2DFE800F0C1
:1033C00003080D12171CD4F8EC15A0784A6817E012
:1033D000D4F8EC15A0788A6812E0D4F8EC15A0783F
:1033E000CA680DE0D4F8EC15A0780A6908E0D4F8B2
:1033F000EC15A0784A6903E0D4F8EC15A0788A6946
:1034000069469047014620E0A07888B9D4F8E415D1
:103410008A6A694690471549827B0A71C27B4A7164
:10342000007C88710A20ADF8000012E0A07820B17D
:1034300029462046FFF7A7FE38BDD4F8E415CA6A2E
:1034400069469047072201464270BDF800000028F7
:10345000F2D0EA88002AEFD080B2824200D9024638
:10346000ADF800202046FFF7BDFE38BD5200002019
:1034700001EB810100EBC100B0F88C0380B2704712
:1034800070B5002300281DD00446002502E06D1C05
:10349000EDB2641C2678002EF9D1022404EB450419
:1034A0001480CC545B1C0322CA5400245B1C06E02D
:1034B000CA545B1CDAB28C54521CD3B2401C027842
:1034C000002AF5D170BD2DE9F0411D46174688460A
:1034D0000446069E00F02EFC04F2E452414682E8C7
:1034E000E0002046FDF728FFD4F8E8050068804793
:1034F0002046BDE8F04100F0E9BB10B5D0F8E41576
:10350000096A8847002010BD10B5D0F8E415496A53
:103510008847002010BD000070B505460069416C69
:10352000426BC2F3400241EAC211EA6994680C405E
:10353000E1070CD0416B21F002014163E8690124ED
:103540008460124821460068426828469047A007D8
:1035500002D5E86902248460200702D5E8690824BE
:103560008460E00602D5E86910248460600602D514
:10357000E86940248460200606D501212846FDF72D
:1035800024FFE96980208860012070BD8800002048
:1035900070B50446806D85682169D1F884100D40AE
:1035A000E90713D001258560E078012808D1A06DD6
:1035B0000069D4F8A413C0F31200081AC4F8B403C5
:1035C000064801210068026820469047A80702D5F6
:1035D000A16D02208860012070BD000088000020DD
:1035E0002DE9F0470646002400F0A7FF00287CD014
:1035F000304600F0ABFF051E78D0280303D53046D7
:10360000FDF786FD0446680303D53046FDF71AFD35
:103610000443A8074FF0000A02D5F1680220486170
:10362000DFF804814FF00109002D18DAB07A30B1CB
:10363000D6F80C01D6F80C1120F0030008603069B0
:10364000416821F001014160D8F8000081693046ED
:103650008847F1684FF00040486144F001042805B4
:1036600003D53046FDF7E8FD0443280709D5D8F80F
:103670000000C16830468847F1680820486144F07E
:103680000104E80603D53046FDF798FD0443E8043D
:1036900003D53046FDF708FE0443A80419D530468B
:1036A00000F018FDF068C768304600F02DFF0328D1
:1036B0002FD086F80290402127F47050B18000F599
:1036C000A050F168C860F1684FF40050486144F0C0
:1036D0000104E8020DD5D8F80000C16930468847DA
:1036E000F1684FF48010486101E00FE00FE044F012
:1036F0000104A8020AD5D8F80000016A30468847BC
:10370000F1684FF40010486144F001042046BDE820
:10371000F08786F802A04FF4007127F47050B18052
:1037200000F51050CDE700008800002090F8CC256F
:103730000A7090F8CD254A7090F8CE2590F8CF35D4
:1037400002EB03224A8090F8D02590F8D13502EBA5
:1037500003228A8090F8D22590F8D33502EB032219
:1037600092B2CA800121C0F8402180F8111170473F
:1037700010B50023044640221946FDF7E0FB002364
:10378000402280212046FDF7DAFB012084F8120157
:10379000D4F8E815A07849688847002010BD10B516
:1037A0000446D0F8E80500698047032084F8120138
:1037B000002010BD10B5D0F8E415C96901B18847E3
:1037C000002010BD10B50446D0F8E405026820467C
:1037D0009047D4F8E80580688047002010BD0000BD
:1037E00070B50A461A4D897804462970012905D812
:1037F00094F81201022807D003280CD02046BDE817
:1038000070401146FFF7BFBCA1B184F8101103202E
:1038100084F812010BE091B194F81001884209D0AC
:1038200001462046FFF796FC297884F810112046BF
:10383000FFF7C8FF2046BDE87040FFF7E3BC022059
:1038400084F8120184F810112046FFF783FCF1E799
:103850009000002010B504464888012201280FD0AE
:10386000022831D1888810F0FF0F2DD121694968D5
:10387000000A06281FD2DFE800F01E0B0F13171BEB
:10388000C4F81821D4F8E40582682046904716E071
:1038900021F0700110310EE021F0700120310AE0BA
:1038A00021F07001303106E021F07001403102E07A
:1038B00021F0700150310548016084F8162120463E
:1038C000BDE81040FFF79EBC10BD00008C0000203A
:1038D0001CB504466946FFF729FF9DF8002012F049
:1038E0001F010AD001290DD0022910D002F0800159
:1038F0002046FDF76CFB00201CBD6946204600F009
:103900000BF8F8E76946204600F0E8F8F3E7694667
:10391000204600F079F8EEE72DE9F0414A780027DB
:1039200001260A2A42D2DFE802F03B554152410803
:1039300005412A27FFF70AFD61E004468888C8B9D7
:10394000C888B8B9887800F07F0594F81201032878
:1039500010D084F8145129462046FDF730FB20464C
:10396000FFF750FC1DB1022084F8120147E084F8F3
:10397000126144E0204619E0FFF732FF3FE0CA88B9
:10398000012A13D190F81221022A02D0032A0DD164
:1039900002E001221B4917E0012200F5887113E0C3
:1039A00090F81221022A04D0032A02D0FFF7EBFB81
:1039B00025E014490839CE60D0F818210AB1032255
:1039C000CA6010490222091DFFF70CFC17E0FFF73F
:1039D00041FF14E0044690F81201022801D00328A8
:1039E000C8D1488801280AD10020C4F81801D4F8A9
:1039F000E4058268204690472046FFF703FC3846DE
:103A0000BDE8F0819800002070B50D4604460979A4
:103A10006878002658B3012816D0032831D194F8CD
:103A2000120102282FD0032827D1688828B921B194
:103A3000802902D02046FDF7CAFAD4F8E4052946C9
:103A40008268204690470EE094F8120102281AD0AE
:103A5000032812D16888A0B929B1802903D0204653
:103A6000FDF745FAE9E72046FFF7CCFB09E094F8BB
:103A70001201022807D003280DD029462046FFF75F
:103A800082FB304670BD0029FBD08029F9D020464A
:103A9000FDF79DFAF5E7104A08064FF000034FF0D6
:103AA000010508D501F07F0000EB800004EBC000A9
:103AB00090F81E0105E001EB810004EBC00090F8D6
:103AC000760308B1556000E0536003490222091DE6
:103AD0002046FFF787FBD4E79000002070B505462D
:103AE00090F8120100260C4603280DD120790128F8
:103AF0000AD8D5F8E405826828469047E08830B9AE
:103B00002846FFF77FFB02E02846FFF73CFB3046E4
:103B100070BD10B590F8121180F81311042180F8CF
:103B20001211D0F8E805C0688047002010BD0000E1
:103B300010B50A46024903A0FFF7A2FC004810BDD9
:103B4000E90200205553422043444320436F6E66F0
:103B500069670000054910B501200870C003FDF732
:103B600083FEBDE81040012001F00CBA00000020E7
:103B7000024901200870C003FDF776BE0000002056
:103B800012200880004870474000002003490020B0
:103B900008704FF40040FDF761BE000000000020F7
:103BA0007047000010B54FF40040FDF75DFE02497C
:103BB0000120087010BD0000000000200349002013
:103BC00008704FF40040FDF749BE000000000020DF
:103BD0007047000010B50A46024903A0FFF750FCE9
:103BE000004810BDE90200205553422043444320C1
:103BF000496E746572666163650000000420088088
:103C0000004870473C00002010B50A46024903A056
:103C1000FFF736FC004810BDE9020020456D6265E3
:103C2000644E6574000000000A4610B5044920B1D6
:103C300004A0FFF725FC024810BD07A0F9E700002B
:103C4000E90200205553422043444320696E204638
:103C500053204D6F64650000555342204344432078
:103C6000696E204853206D6F6465000038B50446C6
:103C700009480D46006800900748001F0368001FB0
:103C8000026806A1094800F027FD2A4608490748AE
:103C9000FFF7F6FB064838BD187AFF1F2530345869
:103CA000253034582530345800000000D002002060
:103CB000E90200202020088000487047BC00002056
:103CC0002020088000487047DC000020F8B54FF441
:103CD000C0663046FDF7ACFF4D208DF80000002493
:103CE0008DF801408DF8024001258DF8035068469B
:103CF000FDF76CFF3046FDF79BFF4A208DF8000072
:103D00008DF801408DF802408DF803506846FDF7AC
:103D10005DFF3046FDF78CFF4B208DF800008DF8DD
:103D200001408DF802408DF803506846FDF74EFFC4
:103D3000F8BD00002DE9FC4701210720FDF7AEFF8B
:103D4000DFF824810A2203214046FDF746FD0A22BE
:103D500005214046FDF741FDDFF810910A220021C0
:103D60004846FDF73AFD0A2201214846FDF735FD98
:103D70000A2205214846FDF730FD0A221146484631
:103D8000FDF72BFD0A220B214846FDF726FD0A22EE
:103D90000C214846FDF721FD0A220D214846FDF77A
:103DA0001CFDDFF8CCA00A2203215046FDF715FDCB
:103DB0000A2202215046FDF710FD0A22002150463A
:103DC000FDF70BFD2020032400908DF8054002250F
:103DD0008DF8045069464046FDF7C3FC8DF8054058
:103DE0008DF80450002608278DF8066000978DF89E
:103DF000076069464046FDF7B4FC8DF8054043F680
:103E000023408DF8045000908DF806608DF807600F
:103E100069464846FDF7A5FC012000908DF8054055
:103E20008DF8045069465046FDF79BFC8DF805401F
:103E300000978DF8045069465046FDF792FC042027
:103E400000908DF805408DF8045069465046FDF706
:103E500088FC01216007FDF721FF01210807FDF71C
:103E600035FFBDE8FC87000000000240000402406E
:103E7000000802404FF47A714843AFF30080C0EB72
:103E800000100021C0000722B0FBF2F0491C814263
:103E9000FCD9704770B50446017A0025C068012935
:103EA00015D0C16841F04001C160204600F0DEF845
:103EB000617A4FF4341009B14FF47410E1688863EB
:103EC0001420FFF7D7FFE078012819D020E0816B9C
:103ED000627A21F480310AB141F480118163E06893
:103EE000C16821F0401121F42021C160204600F07A
:103EF000BDF8E07801280BD1E1682A208860E2E76C
:103F0000E068816821F01E010A3141F020018160E2
:103F1000284670BD2DE9F0410446D0F80C01002779
:103F20003D4607602069016821F4C0510160E07AD4
:103F30004FF480734026C8BB207A01284CD0012161
:103F4000204600F0F4FAE06843622846E16866F330
:103F50001F4063F30F00886200EB1041284661F3B5
:103F60000F004FF42D7161F31F40E168C1F80401A7
:103F700000EB104161F30F00E16865F31F40C1F8E9
:103F8000080100EB104161F30F00E168C1F80C017A
:103F900000EB104161F30F00E168C1F8100100EB84
:103FA000104161F30F00E168C1F8140110212046AF
:103FB00000F088FA204600F067FA20690561206960
:103FC000456121694FF0FF3088612069C56100209B
:103FD0004FF09042FF2315E00021B1E704EB800C85
:103FE000DCF818E0DEF80010002901DA114600E0E4
:103FF0002946CEF80010DCF818100D61DCF8181016
:104000008B60401C61788142E8D8002013E004EB0B
:10401000800CDCF854E0DEF80010002901DA1146CB
:1040200000E02946CEF80010DCF854100D61DCF8F1
:1040300054108B60401C61788142E8D82069016986
:1040400041F480710161E078012808D1032066F312
:104050008A00216940F4803066F3594008632046A5
:1040600000F0E6F93846BDE8F0810000F8B500261A
:10407000044637460096124D0320FFF700FFE06824
:10408000006900907F1CAF4201D90020F8BD009864
:104090000028F1DA0098002140F00100009000981B
:1040A000E2681061E06802690092491CA94202D8E6
:1040B000009AD207F7D10320FFF7E1FE3046F8BDA2
:1040C000400D0300C0680022816821F00101816079
:1040D0001046704710B501690024896883691A6821
:1040E000C1F3410129B1012903D0022904D00329D8
:1040F00005D16FF30A0202E06FF30A02D21C1A60C4
:104100000069416841F480714160204610BDF0B5FE
:104110004B7800254A69012B14D00B7800EB8304FF
:10412000636D1E681B69E2B38A684A6162F3060325
:1041300023F4C012636D02F500221A61C278012ACD
:1041400032D037E083691F681C6932B18E68B24291
:1041500008D966F306044E6106E024F07F0222F4DB
:10416000C01203E062F3060424F4C01202F5002238
:104170001A61C278012A05D10C780A6900EB84041F
:10418000A469626147F004421A60C278CAB94A69F8
:10419000BAB10A78006901219140426B0A43426337
:1041A0000FE0FFE70A7AC1E70B780A6900EB8303A7
:1041B0005B6D5A61097846F0044200EB8100406D66
:1041C00002602846F0BD0000426D07491161C178C8
:1041D000012908D1426D00F2CC515161406D016856
:1041E0004FF0802101607047180008C0F0B50D78CD
:1041F00000264F780124AC40324600EB8503012FA6
:1042000017D05B6D64F31F421C6825040DD40D8923
:1042100065F30A04CD7865F393448D7965F3995479
:1042200044F0805444F400441C600978012904D00F
:1042300005E09B6964F30F02E6E7C17A29B10069E2
:10424000C1691143C1613046F0BD0069C16B1143C2
:10425000C163F8E710B503464C780A78002003EBF9
:104260008202012C09D0526D1368C97823F400131F
:10427000032904D0022902D003E09269F4E743F055
:104280008053136010BDF0B50D78002691F801C081
:1042900001233746AB403A4600EB8504BCF1010FE1
:1042A00007D0646D63F31F4227600978012904D0A9
:1042B00005E0A46963F30F02F6E7C17A29B100694A
:1042C000C1699143C1613046F0BD0069C16B914342
:1042D000C163F8E702464B780978002002EB8101C0
:1042E000012B05D0496D0A6842F400120A6070473C
:1042F0008A691168002901DA41F0804141F4001116
:1043000011607047F0B54B780A7800240125D1F888
:1043100014C000EB8202012B17D0566D326833694E
:10432000BCF1000F64D08D680CEB05077F1EB7FB56
:10433000F5F767F3DC43C3F3C9476F4367F3120331
:104340003361C378012B59D05EE097693A683E69C2
:10435000BCF1000F0DD08B686CF312069C44ACF1DD
:10436000010CBCFBF3F363F3DC46CB78012B05D0E7
:1043700008E06FF3120665F3DC4603E026F0C04662
:1043800006F100563E61C378012B0ED0CB78012B8D
:1043900012D04B69BBB10B789D4003695E6B2E4315
:1043A0005E63CB78012B07D00DE00D780B6900EB35
:1043B0008505AD696B61F4E703699B681B0ADB0740
:1043C0000CD042F080520B7842F0044200EB8303A1
:1043D0009B691A60CA78012A03D026E042F0005295
:1043E000F1E78A8A93B20A78C96800F05FF91CE0A5
:1043F0008F6867F3120365F3DC43A1E70D780B695F
:1044000000EB85056D6D6B61CB78012B06D14B7987
:1044100013B142F0005201E042F08052097842F0BC
:10442000044200EB8100406D02602046F0BD0000B8
:1044300030B5C368002211469A61C4686FF08043AA
:104440006361C568541E6C60C4686361C468094BCD
:10445000A361C37803B91021C06841F4872141F0FA
:104460000811836941F440118B430B43836110466B
:1044700030BD000000080080C0680022816841F063
:10448000010181601046704738B50024024621467C
:104490000094009840F0100000900098D3681861D4
:1044A0000748D26813690093491C814202D8009BD7
:1044B000DB06F7D40320FFF7E2FC204638BD0000FE
:1044C000400D030038B500240346224600940098AE
:1044D00040F020000090009861F38A10009000984E
:1044E000D96808610748D9680B690093521C824259
:1044F00002D8009B9B06F7D40320FFF7C0FC2046A0
:1045000038BD0000400D030001460020096989689C
:10451000C1F3410139B1012903D0022905D0032992
:1045200000D10220704703207047012070470069C6
:10453000026861F3010202607047C068406910F0D0
:10454000010F01D00020704701207047C068416909
:1045500080690840704700698169C069084080B27D
:10456000704700698169C0690840000C704700EB22
:104570008101496D8968006940690840704710B53C
:1045800004460023D21C9008D4F8D02003E014681D
:1045900041F8044B5B1C8342F9D3084610BD000070
:1045A00070B500220123C270402683701546144660
:1045B0008680012901D061B115E0C3720821017024
:1045C00004214FF0A04241709115C1800221017277
:1045D00009E0C4720C210170062141704FF4A06102
:1045E0001F4AC180037202F50061C0E90321002166
:1045F0000AE002EB411303F5106600EB810403F5BA
:104600003063A661491C636543788B42F1D802F59B
:10461000806141614031C0F8CC10002108E002EB1C
:10462000411300EB810403F5A063491CC4F89030EA
:1046300003788B42F3D8002108E002EB013300EB52
:10464000810403F58053491CC4F8D03003788B42B1
:10465000F3D802F56062C0F80C21284670BD000056
:104660000000044010B5C3680024D868012920F078
:10467000C04201D019B104E042F0005201E042F022
:104680008042DA603220FFF7F5FB204610BD817AC8
:1046900000290AD001698968C90706D0D0F80C1131
:1046A000D0F80C0121F003010160704730B50546D8
:1046B0000020EC78002C0CD105EB8202DB1C9B085F
:1046C000D2F8D02003E051F8045B1560641C9C42D2
:1046D000F9D330BDFEE700000FB4084B10B504A9B4
:1046E00002AA039800F05EF8044602A9002000F038
:1046F0008AFA204610BC5DF814FB0000074C000845
:1047000000B52DED048BB0EE409AF0EE609A83B0C8
:1047100051EC190BFCF726F841EC180B18EE100AB7
:1047200018EE901A8DED008B002818BF0120084369
:1047300020F00040C0F17F6000F1E040C00F14D0D5
:1047400019EE101A19EE900A8DED009B002918BF82
:104750000121084320F00040C0F17F6000F1E040FB
:10476000C00F04BF012000F017F8B0EE480A03B0F4
:10477000F0EE680ABDEC048B00BD02E008C8121F11
:1047800008C1002AFAD170477047002001E001C13A
:10479000121F002AFBD170470149086070470000D2
:1047A000CC0200202DE9FF4F8DB00F4605460026B4
:1047B00006E025280BD0DDE90F1290476D1C761C12
:1047C00028780028F5D111B03046BDE8F08F0024DC
:1047D000A246A1460122EC4900E0044315F8013F3E
:1047E000203B02FA03F00842F7D128782A2810D09B
:1047F0006FF02F022878A0F13001092914D80AEBB4
:104800008A0102EB410144F0020400EB010A6D1C35
:10481000F0E701CF5FEA000A03D544F40054CAF17F
:10482000000A44F002046D1C28782E2817D115F8D0
:10483000010F44F004042A280ED06FF02F022878CC
:10484000A0F1300109290AD809EB890102EB4101E5
:1048500000EB01096D1CF2E757F8049B6D1C2878EA
:104860006C280FD006DC4C2817D068280DD06A2899
:1048700014D104E0742810D07A280FD10DE044F44C
:1048800000140AE044F4801401E044F44014697810
:10489000814202D104F580146D1C6D1C2A786E2AA9
:1048A0001FD00CDC632A31D004DC002A8BD0582ABC
:1048B00011D1A3E0642A68D0692A0CD165E0732A7B
:1048C0002ED004DC6F2A73D0702A04D19BE0752AA5
:1048D0006FD0782A6ED01046DDE90F129047761C13
:1048E00050E1C4F30250022806D0032809D004285E
:1048F00001CF09D0066045E101CFF117C0E90061A1
:1049000040E101CF06803DE106703BE117F8040B62
:104910008DF8000000208DF80100EB46012003E037
:1049200057F804BB4FF0FF3061074FF0000102D48D
:104930000DE008F10101884649450FDA8045F8DBB2
:104940001BF808100029F4D108E008F1010188469D
:104950008142FADB1BF808100029F6D1DDE90F23AC
:10496000AAEB08008146214600F036F9304400EBFE
:10497000080604E0DDE90F121BF8010B9047B8F1BF
:104980000108F7D221464846F7E00A21C4F3025352
:104990004FF0000B0891022B04D001CFC117032B5D
:1049A00009D00AE0FF1D27F00707F7E8020108E039
:1049B00032E01FE020E000B2C117042B01D140B269
:1049C000C117031E71F1000307DA4FF0000CD0EBA2
:1049D0000C006CEB01012D2302E0230504D52B23F1
:1049E0008DF82430012303E0E30701D02023F7E70B
:1049F000984658E00A2110E010210EE010204FF0F8
:104A0000000B08900CE010214FF0000B44F0040460
:104A10004FF00809089103E008214FF0000B0891BE
:104A2000C4F30253022B04D001CF0021032B06D084
:104A300006E0FF1D27F00707F7E8020103E080B258
:104A4000042B00D1C0B24FF0000823072BD5702AE9
:104A500007D0DDF820C08CF0100C5CEA0B0C05D000
:104A60000EE040238DF82430012308E050EA0103D2
:104A700006D030238DF824308DF825200223984667
:104A8000DDF820C08CF0080C5CEA0B0C0BD150EA6E
:104A9000010301D1630706D530238DF824304FF090
:104AA0000108A9F10109582A04D038A20B9208AADA
:104AB0000A920BE03AA2F9E75B46089AFBF75CFD25
:104AC0000B9B9B5C0A9A521E0A92137050EA0102D9
:104AD000F2D10A98ADEB000000F1200B600702D57F
:104AE00024F4803401E04FF00109D94502DDA9EB3F
:104AF0000B0000E0002000EB0B0141440890AAEB02
:104B0000010AE00306D4DDE90F232146504600F0F8
:104B100063F806444FF0000908E009A911F80900FC
:104B2000DDE90F12904709F10109761CC145F4DB5C
:104B3000E0030CD5DDE90F232146504600F04CF888
:104B4000064404E0DDE90F1230209047761C0899F6
:104B5000481E08900029F5DC08E00A980A990078B8
:104B6000491C0A91DDE90F129047761CBBF1000148
:104B7000ABF1010BF1DC21465046DDE90F2300F0DB
:104B800019F806446D1C1BE6092801003031323348
:104B90003435363738396162636465660000000079
:104BA0003031323334353637383941424344454663
:104BB000000000002DE9F041044600251E4617467E
:104BC000880404D405E039462020B0476D1C641EDB
:104BD000F9D52846BDE8F0812DE9F04104460025CD
:104BE0001E469046C80301D5302700E020278804E0
:104BF00004D505E041463846B0476D1C641EF9D522
:104C00002846BDE8F0810A68531C0B60107070479D
:104C100008B5074900208DF800000A788DF80120BA
:104C20000A7B044988540221684601F019FB08BD3B
:104C300004130020DC11002008B5064980208DF8FF
:104C400000000A7B044988540121684601F008FBF2
:104C500008BD000004130020DC1100207CB50A4CC4
:104C600080238DF80030A35400236C4604E0C55C1B
:104C7000E6185B1C7570DBB28B42F8D3491CC9B2D5
:104C8000204601F0EDFA7CBDDC1100207CB5084C1B
:104C90008023A35400236C4603E0C55CE5545B1CF1
:104CA000DBB28B42F9D3204601F0DAFA7CBD00007A
:104CB000DC11002010B5114A002132F81130834276
:104CC00014D9A1F1160332F8114002EB410103EBB4
:104CD000830331F8021C621A401A00EB8000400086
:104CE00090FBF2F000EB430000B210BD491CC9B2CA
:104CF0004729E2D34FF4FA7010BD00008201002072
:104D00002DE9F0479AB00024074625466E463846FE
:104D100000F03AF826F815006D1CEDB2B146322DC0
:104D2000F5D34FF0320869460022A8F1010A18E0D5
:104D30000026A8EB020C3046ACF1010C0CE001EBB4
:104D4000400731F810307D88AB4203D921F810506C
:104D500001267B80401C80B28445F0DC1EB9521CC9
:104D600092B25245E4DB0520494631F81020401C40
:104D7000C0B214442D28F8D32820B4FBF0F01AB0A8
:104D800080B2BDE8F087000010B50A4C0146072349
:104D900001222046FBF7C6FD2046FBF7FDFD022160
:104DA0002046FBF792FD0028F9D02046BDE81040D0
:104DB000FBF788BD0020014010B503464C1EC4EB34
:104DC0000410012B04D0022B1ED0032B4BD12CE05E
:104DD000032A04D0022A09D0012A0ED043E0FBF7AF
:104DE00089FB41EC100B9FED291B32E0FBF782FBA6
:104DF00041EC100B9FED271B2BE0FBF77BFB41ECFD
:104E0000100B9FED261B24E0012A03D0022A01D0BB
:104E1000032A28D1C1F10100C0EB001000F5877012
:104E200000EE100AB8EE400A1DE0032A04D0022A60
:104E300009D0012A22D016E0FBF75CFB41EC100BF5
:104E40009FED181B05E0FBF755FB41EC100B9FEDA8
:104E5000171B51EC100B53EC112BFBF767FAFBF708
:104E60006FFB00EE100ADFED130A9FED131A30EE10
:104E7000C00A20EE011A81EE200A10BDFBF73AFBB2
:104E800041EC100B9FED0D1BE3E70000713D0AD7CD
:104E9000A3A47240A4703D0AD74772408FC2F52880
:104EA0005C0B72401E85EB51B8366E40B81E85EB28
:104EB00051F06E400000B44300749746E27A14AE9D
:104EC00047696F4070B50546FFF71AFFFFF7F2FE1E
:104ED0000446284600F09AF9204400B270BD000054
:104EE00070B501218CB00846FCF7D8FE01210420E2
:104EF000FCF7D4FE01210E023046FCF7F3FE04203D
:104F0000032506908DF81C5000248DF81F4006A93B
:104F10001948FCF726FC022006908DF81C508DF8ED
:104F20001F4006A91548FCF71CFC01213046FCF780
:104F3000E5FE00213046FCF7E1FE4FF47060CDE95C
:104F40000A4028040990089408A8FBF7A5FC8DF8EE
:104F5000044000948DF80540029404940120084C0C
:104F60008DF8140069462046FBF7B6FC0121204667
:104F7000FBF787FC0CB070BD000002400008024047
:104F800000200140024901220A70087370470000A6
:104F90009C1400202DE9F84F074690460520B1FBF0
:104FA000F0F2521C56B2B1FBF0F200FB12152C4885
:104FB0000024DFF8B0900088ADF80000A246224639
:104FC00002214846FBF768FE6DB1F1B2244801F0BA
:104FD00099FA012202214846FBF75EFE224A4FF071
:104FE0008809761E1FE0701EC1B2EFE7BDF8000011
:104FF00004EB840100EB8003394402EB8300D1F819
:1050000000C0C0F80EC00979817442F823900821CD
:10501000817280F80B8080F80CA0641C4473684691
:1050200001F07BFA64B2B442E0DB002D16D0BDF88B
:105030000000E91C00EB800042F8209002EB8000A9
:105040006A1C817280F80B8080F80CA0611C41738F
:1050500004EB840139440E30FBF7B2F8BDE8F88F59
:105060001000001000640040180200104FF480414E
:105070000148FCF7C4BB0000000C02401CB5012134
:105080000846FCF70BFE0120009000208DF804007C
:1050900003208DF8050002208DF8070069460248BC
:1050A000FCF75FFB1CBD00000000024030B5012191
:1050B00089B00846FCF7FEFD2A4D0222062128464B
:1050C000FCF78BFB022207212846FCF786FB012117
:1050D0000220FCF7EFFDC020039002208DF81000A5
:1050E00003208DF8110000248DF812408DF8134034
:1050F00003A92846FCF735FB6846FDF771FA012045
:10510000ADF80000ADF80840ADF802404FF6FF7072
:10511000154C019069462046FDF724FA00231A46F3
:1051200003212046FDF7D4F805A8FDF74CF90A2124
:10513000ADF81C1005A92046FDF7EFF80121204627
:10514000FDF7B6F8012211462046FDF744F900218B
:105150002046FDF7DDF901212046FDF7AFF809B043
:1051600030BD000000000240000400401CB50121D9
:105170000820FCF793FD4FF4F040009001208DF8DB
:10518000040000218DF806108DF8070002208DF82C
:10519000050069460248FCF7E4FA00F003F81CBD7C
:1051A000000C024010B54FF400610948FCF727FBE2
:1051B0004FF48070FCF752FB0648012180F8411043
:1051C000054942F2107209681144816310BD000064
:1051D000000C0240181500204001002010B54FF4CB
:1051E000F0410848FCF709FB01F0F4F84FF4807037
:1051F000FCF73AFB0448012100F8241F0021417705
:1052000010BD0000000C0240181500202749801E28
:10521000152848D2DFE800F00B4747474747474784
:10522000470E4711171A20272A30363D4300B1F99F
:105230001A007047B1F91C007047B1F91E00411CFB
:10524000FAD14B207047B1F9200017E0B1F92200E4
:10525000411CF7D164207047B1F92400411CFAD1F8
:105260006FF013007047B1F9260014E0B1F928007F
:10527000411CF7D146207047B1F92A00411CFAD1F0
:105280002D207047B1F92C00411CFAD14FF4E16098
:105290007047B1F92E00411CFAD13C207047B1F99A
:1052A0003000411CFAD10020704700006814002033
:1052B00010B5044C0C22211D0348FCF7DDFD012034
:1052C000A07010BD681400200400020870B51F4CC7
:1052D0000025204661780126007807290BD2DFE8F7
:1052E00001F0040B121A1E0A1A00A078002802D03E
:1052F00000F00AFFA57070BD0C22211D1448FCF7B8
:10530000C5FD032005E011480C21303801F026FAD4
:105310000420607070BD00F09DFCA67013E0E17881
:1053200006EB4102302AF5D8084B0A4A303B13F805
:10533000116003EB41011670497851700246022159
:105340000448FFF78BFC657070BD000068140020F6
:10535000040002086B010020064A01284CF250317B
:10536000106800D1081A80B2884202D90248406908
:1053700080B2704724040040DC1200202DE9F04781
:10538000334C6178002936D00025324E4FF400505E
:105390004FF400684FF480594FF4804A02292CD012
:1053A000032928D1E26831688A4201D2FCF756FA13
:1053B00060683168884202D24046FCF74FFAA16823
:1053C0003068814202D24846FCF748FA21693068C9
:1053D000814202D25046FCF741FAE16830688142CE
:1053E00009D2A168814206D26168814203D2216953
:1053F000814200D26570BDE8F0872178032701293A
:1054000005D1FCF731FA30683230E06067702078FF
:10541000022806D14046FCF727FA30683230606037
:1054200067702078032806D14846FCF71DFA3068DB
:105430003230A06067702078042806D15046FCF70F
:1054400013FA30683230206167702570D3E70000AE
:10545000C814002040010020024902224A7008704E
:1054600070470000C81400207CB51A4C2078002832
:105470000BD01949012809D00025022811D0042891
:1054800003D10C2000F022FA25707CBDB1F9080090
:1054900040F22621884201DD042000E00220207035
:1054A0007CBD088980228DF8002002128DF8012031
:1054B0008DF8020088898DF8040001128DF8031020
:1054C000064980200C2208730521684600F0C8FEBA
:1054D000DAE700001002002018150020DC1100207F
:1054E0002DE9F0415B4E30785B4D0127002429689F
:1054F00030B101280CD002281ED03470BDE8F081F4
:1055000070688842FAD2377086F82C403463F5E729
:105510000B20FFF7D7FC96F82C1006EB4101C88151
:1055200096F82C00401C86F82C0096F82C000528D4
:10553000E4D902203070E1E7002008E0326B06EB8E
:105540004003B3F90E301A443263401CC0B296F8DF
:105550002C208242F2D8306B96F82C2090FBF2F08F
:10556000708170893081347041F2883008447060F5
:10557000B6F90A00462801DA86F8357096F8350043
:10558000012808D1B6F90A00962804DD0320FFF7A8
:10559000F9FC86F83540B06B2968884206D296F847
:1055A000410018B1FFF762FD86F841400220FFF785
:1055B00089FCB08196F82200C0B10E20FFF726FECC
:1055C000B6F90A10884203DDFFF7ECFD86F82440A7
:1055D0000D20FFF71BFEB6F90A203146904203DB8F
:1055E000C86B2968884201D2FFF7F8FD96F82400BD
:1055F000012883D196F82200012888D11020FFF7D6
:1056000005FEB6F90C1088420EDDFFF7CBFD112028
:10561000FFF7FCFD00EB4001C1EBC010296801EB76
:10562000C000F06386F840700F20FFF7EFFDB6F979
:105630000C10884209DBF16B30462A689142BFF4B6
:1056400066AF90F840000128D3D1FFF7C7FD86F878
:10565000404053E7181500204001002088B08748DB
:105660000090874B874A00218748FDF72CFF4FF0B9
:1056700000081823062205214046CDF80080FBF7DC
:1056800013FA824E4FF4165201213046FDF7A0FB6B
:105690003046FDF7E1F97E484FF47A710068B0FBBF
:1056A000F1F0401EB0F1807F0AD24FF0E021486156
:1056B000784AF02082F8140DC1F81880072008619C
:1056C00000F0FAFDFBF74EFFFFF7F0FCFFF7F0FDEF
:1056D000FCF7D0F8FCF7A2F8FFF748FDFFF700FC55
:1056E000FCF7A4F900F022FFFBF75CF97D20FCF742
:1056F00059FB012830D001F0B7F80920FDF7C6FBAF
:10570000DFF89491DFF894B1654EDFF898A166490F
:105710004AF6AA20086001F0C7F8FBF763F900F029
:1057200077FB00F0A3FB00F037FC01F033F8FFF744
:10573000CDFDFFF799FEFFF721FEFFF7D1FE00F048
:10574000DFFD00F003FB31686FF0805081420BD326
:105750009BF8000018B107E001F0DEFACDE75348EE
:10576000007808B901F0A8F99BF800005F4600280E
:1057700063D0012804D002282AD003285DD142E05A
:105780004B484C49008809888842A0EB010101D2AE
:1057900001F5FA7161F30F0560F31F450420FFF76F
:1057A0005BFEA8B2642800D364208DF8180089F845
:1057B0000080012306AA81213348FBF724FC022044
:1057C00038709DF81800002448BB87F8008034E04A
:1057D00099F8000018B39DF81800A04202D88BF881
:1057E00000802AE001A800F0FDFD89F800800F2369
:1057F00001AA81212448FBF706FC2F4930681430A8
:105800000860032018E02C4831680068814207D9FD
:10581000641C8BF800800121E4B289F800100CE0D0
:1058200099F8000048B10220FFF716FE214800F069
:1058300074FE641CE4B2022038702048204F0078C7
:10584000397888423FF463AF0320FFF705FE3168E3
:10585000DAF8000081427FF65AAF3878194900EB38
:10586000800001EB80011848FBF7D9FA3878401C1A
:1058700038703068401CCAF8000048E70400002077
:10588000FC00002020000020E80B00200010014058
:10589000280200200FE000E0A000002044010020CA
:1058A000400100207401002000300040041300205B
:1058B00010000010140000103C010020080000102F
:1058C0000C000010282900100064004008B5054AAB
:1058D00000218DF80010115402460121684600F0A5
:1058E000BFFC08BDDC1100202DE9F05FC44CC54BA6
:1058F000C948224693F807C09178C34DC34FDFF8DB
:1059000010B3C44E0078D2684FF0110E4FF0060964
:105910004FF0040ABCF11B0F7ED2DFE80CF082FDD1
:1059200082FC82849D97820E5D1E69A5B0FB3E4C71
:105930006CB9C2C4FA90F9F8F700002871D10920B7
:10594000287300F0B9FB05202870A07810B1A16879
:10595000204688470020B14920E1002861D19A7A89
:10596000597A187A00F090F9AD49C88385F800A0FB
:105970000B202873A94D2878401CC0B228700A2833
:1059800004D961682046884700202870A078F8B1C3
:10599000E2689D49204690471AE0002841D10A203C
:1059A00028701020287311B1974920469047BDE810
:1059B000F05FFFF741B9002833D10D20287085F83A
:1059C0000CE011B19049204690479449002008709E
:1059D000BDE8F05F00F070BB002822D1187AFBF719
:1059E000B7FF8F49C88385F800A00A202873CDE748
:1059F00001218C4814E08C48197A0170597A417061
:105A0000997A8170D97AC170197B0171597B417182
:105A1000997B8171012100E003E0844841701221EB
:105A20000170BDE8F09F597A988907EB410140BAAF
:105A300048800520387087F8019001200AE0187A24
:105A400068730F20287017202873EAE70720387042
:105A500001207870B870E4E787F800900220787031
:105A6000587A401EF870DCE77149012008708BF805
:105A7000000086F82200FFF7B1FB0D20B5E0002002
:105A80008BF8000086F82200FFF78CFB0E20ACE0BC
:105A90006848007808B11320A7E0674981F80190B1
:105AA000BFE71420A1E0187ADFF89081A1280AD07E
:105AB000B2283AD062480068092840D00828B0D1FE
:105AC00000F05EFD3BE054480124A707047000216C
:105AD0003846FCF7F3FB388C20F480503884FBF711
